:100000000C9463000C948B000C948B000C948B006C
:100010000C948B000C948B000C948B000C948B0034
:100020000C948B000C948B000C948B000C948B0024
:100030000C948B000C948B000C948B000C948B0014
:100040000C94C1030C948B000C948F030C946903E3
:100050000C948B000C948B000C948B000C948B00F4
:100060000C948B000C948B000000000024002700EF
:100070002A0000000000250028002B0000000008D6
:10008000000201000003040700000000000000005F
:1000900000000000230026002900040404040404D6
:1000A0000404020202020202030303030303010227
:1000B00004081020408001020408102001020408F6
:1000C00010205004290711241FBECFEFD8E0DEBF57
:1000D000CDBF22E0A6E0B2E001C01D92A83BB2076E
:1000E000E1F712E0A0E0B1E0E6E4F6E102C005903D
:1000F0000D92A630B107D9F710E0C2E6D0E004C0F7
:100100002197FE010E941E09C136D107C9F70E943E
:10011000C6040C94160B0C940000EFE7F0E0249159
:10012000E1EBF0E09491EDE9F0E0E491EE23C9F029
:10013000222339F0233001F1A8F4213019F12230C3
:1001400029F1F0E0EE0FFF1FEE58FF4FA591B4919B
:100150002FB7F894EC91811126C090959E239C9323
:100160002FBF08952730A9F02830C9F0243049F76F
:10017000209180002F7D03C0209180002F77209355
:100180008000DFCF24B52F7724BDDBCF24B52F7DB2
:10019000FBCF2091B0002F772093B000D2CF2091D9
:1001A000B0002F7DF9CF9E2BDACF0895AF92BF928A
:1001B000CF92DF92EF92FF920F931F93CF93DF9333
:1001C0006C017B018B01040F151FEB015E01AE1862
:1001D000BF08C017D10759F06991D601ED91FC9184
:1001E0000190F081E02DC6010995892B79F7C501B1
:1001F000DF91CF911F910F91FF90EF90DF90CF9003
:10020000BF90AF900895FC01538D448D252F30E0B1
:10021000842F90E0821B930B541710F0CF96089513
:1002200001970895FC01918D828D981761F0A28D40
:10023000AE0FBF2FB11D5D968C91928D9F5F9F7306
:10024000928F90E008958FEF9FEF08952FB7F89465
:1002500080910D0290910E02A0910F02B0911002B8
:100260002FBF8093190290931A02A0931B02B093A0
:100270001C0281E192E00E94120197FF26C02FB775
:10028000F89480910D0290910E02A0910F02B0910E
:1002900010022FBF4091190250911A0260911B0267
:1002A00070911C02841B950BA60BB70B4091150295
:1002B00050911602609117027091180284179507E9
:1002C000A607B707B0F28FEF9FEF0895FC01918D5D
:1002D000828D981731F0828DE80FF11D858D90E0A9
:1002E00008958FEF9FEF0895FC01918D228D892F46
:1002F00090E0805C9F4F821B91098F73992708952E
:1003000081E192E00E94740121E0892B09F420E050
:10031000822F089580E090E0892B29F00E948001CF
:1003200081110C9400000895FC01A48DA80FB92F31
:10033000B11DA35ABF4F2C91848D90E001968F730D
:100340009927848FA689B7892C93A089B1898C912C
:10035000837080648C93938D848D981306C002887B
:10036000F389E02D80818F7D80830895EF92FF9245
:100370000F931F93CF93DF93EC0181E0888F9B8DC8
:100380008C8D98131AC0E889F989808185FF15C082
:100390009FB7F894EE89FF896083E889F9898081A5
:1003A0008370806480839FBF81E090E0DF91CF9174
:1003B0001F910F91FF90EF900895F62E0B8D10E096
:1003C0000F5F1F4F0F731127E02E8C8D8E110CC005
:1003D0000FB607FCFACFE889F989808185FFF5CF50
:1003E000CE010E949401F1CFEB8DEC0FFD2FF11D9A
:1003F000E35AFF4FF0829FB7F8940B8FEA89FB898D
:1004000080818062CFCFCF93DF93EC01888D8823EA
:10041000B9F0AA89BB89E889F9898C9185FD03C067
:10042000808186FD0DC00FB607FCF7CF8C9185FF4C
:10043000F2CF808185FFEDCFCE010E949401E9CFFC
:10044000DF91CF9108953FB7F89480910702909182
:100450000802A0910902B0910A0226B5A89B05C026
:100460002F3F19F00196A11DB11D3FBFBA2FA92F33
:10047000982F8827BC01CD01620F711D811D911D30
:1004800042E0660F771F881F991F4A95D1F708959C
:100490008F929F92AF92BF92CF92DF92EF92FF9294
:1004A0004B015C010E9423026B017C010E9423022C
:1004B0006C197D098E099F09683E7340810591057D
:1004C000A8F321E0821A9108A108B10888EEC80EAD
:1004D00083E0D81EE11CF11C81149104A104B10435
:1004E00029F7FF90EF90DF90CF90BF90AF909F9053
:1004F0008F900895FC0101900020E9F73197AF013A
:10050000481B590BBC0181E192E00C94D600CF93BB
:10051000DF930E947A02EC0188E191E00E947A0266
:100520008C0F9D1FDF91CF9108958BE191E00E9488
:10053000870286E391E00E94870287E691E00C94AF
:1005400087028F929F92AF92BF92CF92DF92EF92EB
:10055000FF920F931F93CF93DF93CDB7DEB7A19791
:100560000FB6F894DEBF0FBECDBF6C01990FEE0839
:10057000FF08F7FE41C06DE281E192E00E94B60102
:100580008C0122273327A9012C193D094E095F0947
:1005900019A2CE0181967C019AE0892E912CA12C82
:1005A000B12CCA01B901A50194010E94FC08605D4B
:1005B000F70162937F01211531054105510589F746
:1005C00090E080E0309719F0CF010E947A02800F0E
:1005D000911FA1960FB6F894DEBF0FBECDBFDF917D
:1005E000CF911F910F91FF90EF90DF90CF90BF9030
:1005F000AF909F908F900895A701960119A28E0148
:100600000F5D1F4F8AE0C82ED12CE12CF12CCA01BE
:10061000B901A70196010E94FC08605DF801629390
:100620008F01211531054105510589F790E080E0E2
:10063000309779F2CF010E947A02CBCF0F931F93AC
:10064000E0EBF0E06491ECE9F0E0E491F0E0EE0F33
:10065000FF1FE057FF4F8591949100E412E42FE0D3
:1006600030E0462F0E940B0461157105810591054C
:1006700029F06F5F7F4F8F4F9F4F9F701F910F919A
:1006800008950F931F93CF93DF93EC018881998195
:10069000009759F02A813B812617370730F081E017
:1006A000DF91CF911F910F9108958B016F5F7F4F65
:1006B0000E94490A009759F0998388831B830A8313
:1006C0002C813D81232B59F7FC011082E8CF80E07B
:1006D000E7CF1F920F920FB60F9211242F933F93E3
:1006E0004F935F936F937F938F939F93AF93BF933A
:1006F000EF93FF9381E192E00E949401FF91EF91CB
:10070000BF91AF919F918F917F916F915F914F9129
:100710003F912F910F900FBE0F901F9018951F9231
:100720000F920FB60F9211242F938F939F93EF93F5
:10073000FF93E0912102F09122028081E091270253
:10074000F091280282FD1BC0908180912A028F5F68
:100750008F7320912B02821741F0E0912A02F0E082
:10076000EF5EFD4F958F80932A02FF91EF919F914D
:100770008F912F910F900FBE0F901F901895808131
:10078000F4CF1F920F920FB60F9211242F933F9325
:100790008F939F93AF93BF9380910D0290910E0220
:1007A000A0910F02B09110023091060223E0230FB6
:1007B0002D3758F50196A11DB11D20930602809397
:1007C0000D0290930E02A0930F02B093100280913D
:1007D000070290910802A0910902B0910A020196C5
:1007E000A11DB11D8093070290930802A0930902F6
:1007F000B0930A02BF91AF919F918F913F912F913A
:100800000F900FBE0F901F90189526E8230F0296A9
:10081000A11DB11DD2CFCF92DF92EF92FF920F9325
:100820001F93E82FF92F05C0015011092109310943
:1008300061F1908196239417B9F305C00150110915
:100840002109310911F1908196239413F7CFC12C1E
:10085000D12CE12CF12C0AC08FEFC81AD80AE80A73
:10086000F80A0C151D052E053F0579F080818623B9
:10087000841791F36C2D7D2D8E2D9F2D1F910F913F
:10088000FF90EF90DF90CF90089560E070E080E0FF
:1008900090E01F910F91FF90EF90DF90CF9008951F
:1008A000109214021092130288EE93E0A0E0B0E0E0
:1008B0008093150290931602A0931702B09318022A
:1008C0008AE091E0909312028093110285EC90E00F
:1008D00090931E0280931D0284EC90E0909320027E
:1008E00080931F0280EC90E090932202809321027B
:1008F00081EC90E0909324028093230282EC90E0BC
:10090000909326028093250286EC90E09093280233
:100910008093270210922A0210922B0210922C022E
:1009200010922D021092AF021092AE021092B102FC
:100930001092B0021092B3021092B20270E060E026
:100940008EEA92E00E9441032091AE023091AF0204
:10095000811113C02115310519F0C9010E94C00988
:100960001092AF021092AE021092B3021092B20235
:100970001092B1021092B00208951092B302109238
:10098000B2026AE171E0C9010C940F0BCF93DF93BF
:10099000CDB7DEB728970FB6F894DEBF0FBECDBF38
:1009A000789484B5826084BD84B5816084BD85B54A
:1009B000826085BD85B5816085BD80916E00816056
:1009C00080936E00109281008091810082608093FC
:1009D00081008091810081608093810080918000FE
:1009E0008160809380008091B10084608093B10029
:1009F0008091B00081608093B00080917A00846023
:100A000080937A0080917A00826080937A0080914E
:100A10007A00816080937A0080917A008068809368
:100A20007A001092C100E1EBF0E02491EDE9F0E0F2
:100A30008491882399F090E0880F991FFC01E85970
:100A4000FF4FA591B491FC01EE58FF4F8591949111
:100A50008FB7F894EC91E22BEC938FBFE0EBF0E0D2
:100A60002491ECE9F0E084918823C9F090E0880FAC
:100A7000991FFC01E859FF4F45915491FC01EE5834
:100A8000FF4FA591B4919FB7F894FA01808120950A
:100A9000822380838C91E22FE823EC939FBFE09127
:100AA0002102F091220282E08083E0911D02F09108
:100AB0001E021082E0911F02F09120028FEC8083D1
:100AC00010922902E0912502F091260286E08083AF
:100AD000E0912302F0912402808180618083E09183
:100AE0002302F0912402808188608083E0912302B8
:100AF000F0912402808180688083E0912302F0914C
:100B0000240280818F7D808380EC91E00E948702A7
:100B10000E94950260ED77E080E090E00E9448023C
:100B200023E0E22EF12C33E2C32ED12C90E0A92E4B
:100B300090E0B92E81E192E00E9474011816190626
:100B40000CF03CC081E192E00E941201823709F072
:100B500047C080E00E948D00C7010197F1F781E056
:100B60000E948D00C6010197F1F780E00E948D0080
:100B70000E941E030E94720726E933E44BE05DE306
:100B80000E94D10720E030E040E05FE30E94D107FF
:100B90000E94C60870930C0260930B028AED91E0EC
:100BA0000E947A0280910B0290910C020E94A10295
:100BB00084EF91E00E9487020E94950268EE73E044
:100BC00080E090E00E944802A114B10409F4B2CF81
:100BD0000E948001882309F4ADCF0E940000A6CFB7
:100BE000893609F041C010E000E00F5F1F4F063169
:100BF000110511F380E00E948D00C7010197F1F704
:100C000081E00E948D00C6010197F1F780E00E940B
:100C10008D000E941E030E94720726E933E44BE018
:100C20005DE30E94D10720E030E040E05FE30E94F6
:100C3000D1070E94C60870930C0260930B028AEDE4
:100C400091E00E947A0280910B0290910C020E9426
:100C5000A10284EF91E00E94870264EF71E080E0DE
:100C600090E00E944802C1CF843709F0EDC01A829B
:100C700019821C821B821E821D8270E060E0CE0100
:100C800001960E94410329813A8181112BC02115CF
:100C9000310519F0C9010E94C0091A8219821E8209
:100CA0001D821C821B820E94260197FD23C08F8318
:100CB00018860D811E810F5F1F4FB801CE0101966E
:100CC0000E944103882379F329813A818D819E8195
:100CD000BE01695F7F4F820F931F0E940F0B1E831F
:100CE0000D83E1CF1E821D826AE171E0C9010E947D
:100CF0000F0BD9CF8091AE029091AF02009709F40B
:100D00008AC069817A816115710509F482C04091B8
:100D1000B0025091B1022D813E814217530708F471
:100D200078C00E940F0B8D819E819093B3028093B7
:100D3000B20289819A810E94C0094091B202509109
:100D4000B3026091AE027091AF0281E192E00E9425
:100D5000D60088E191E00E947A028091AE029091E3
:100D6000AF02009709F46CC00E942F070E9472071F
:100D70002B013C0110E000E00F5F1F4FB80175959B
:100D80006795072E000C880B990B0E9472079B0138
:100D9000AC01C301B2010E946B0787FD0DCF80E05B
:100DA0000E948D00C7010197F1F781E00E948D003C
:100DB000C6010197F1F780E00E948D000E941E039A
:100DC0000E94720726E933E44BE05DE30E94D107FD
:100DD00020E030E040E05FE30E94D1070E94C608B7
:100DE00070930C0260930B028AED91E00E947A02EC
:100DF00080910B0290910C020E94A10284EF91E07D
:100E00000E94870264EF71E080E090E00E94480257
:100E1000B3CF0E94C00989819A819093AF028093D9
:100E2000AE028B819C819093B1028093B0028D8140
:100E30009E819093B3028093B2021A82198279CF75
:100E400060E070E0CB0192CF88EF91E00E948702D2
:100E5000B5CE8091AE029091AF020C94C0091F9361
:100E6000FC0199278827BC01E89411911032E9F31D
:100E7000193010F01E30C8F31B3251F01D3249F406
:100E8000689406C00E945607610F711D811D911D57
:100E9000119110531A30B0F33EF4909580957095EF
:100EA00061957F4F8F4F9F4F1F910895592F482F66
:100EB000372F262F660F771F881F991F660F771F02
:100EC000881F991F620F731F841F951F660F771F5E
:100ED000881F991F08950E94AD0708F481E00895C6
:100EE000E89409C097FB3EF49095809570956195C4
:100EF0007F4F8F4F9F4F9923A9F0F92F96E9BB277A
:100F00009395F695879577956795B795F111F8CFF5
:100F1000FAF4BB0F11F460FF1BC06F5F7F4F8F4F60
:100F20009F4F16C0882311F096E911C0772321F056
:100F30009EE8872F762F05C0662371F096E8862FEE
:100F400070E060E02AF09A95660F771F881FDAF745
:100F5000880F9695879597F90895990F0008550F72
:100F6000AA0BE0E8FEEF16161706E807F907C0F02F
:100F700012161306E407F50798F0621B730B840B37
:100F8000950B39F40A2661F0232B242B252B21F411
:100F900008950A2609F4A140A6958FEF811D811DB1
:100FA00008950E94E4070C9455080E94470838F001
:100FB0000E944E0820F0952311F00C943E080C94EA
:100FC000440811240C9489080E94660870F3959FC8
:100FD000C1F3950F50E0551F629FF001729FBB2730
:100FE000F00DB11D639FAA27F00DB11DAA1F649FCC
:100FF0006627B00DA11D661F829F2227B00DA11D7F
:10100000621F739FB00DA11D621F839FA00D611D04
:10101000221F749F3327A00D611D231F849F600D25
:10102000211D822F762F6A2F11249F5750409AF04E
:10103000F1F088234AF0EE0FFF1FBB1F661F771FDA
:10104000881F91505040A9F79E3F510580F00C94A5
:101050003E080C9489085F3FE4F3983ED4F38695EC
:1010600077956795B795F795E7959F5FC1F7FE2B45
:10107000880F911D9695879597F9089597F99F6721
:1010800080E870E060E008959FEF80EC0895002410
:101090000A941616170618060906089500240A94DD
:1010A00012161306140605060895092E0394000C63
:1010B00011F4882352F0BB0F40F4BF2B11F460FFF2
:1010C00004C06F5F7F4F8F4F9F4F089557FD90581B
:1010D000440F551F59F05F3F71F04795880F97FBFC
:1010E000991F61F09F3F79F08795089512161306B6
:1010F0001406551FF2CF4695F1DF08C016161706E5
:101100001806991FF1CF8695710561050894089519
:10111000E894BB2766277727CB0197F908952F928C
:101120003F924F925F926F927F928F929F92AF9277
:10113000BF92CF92DF92EF92FF920F931F93CF93C4
:10114000DF93CDB7DEB7CA1BDB0B0FB6F894DEBF5B
:101150000FBECDBF09942A88398848885F846E8481
:101160007D848C849B84AA84B984C884DF80EE80CB
:10117000FD800C811B81AA81B981CE0FD11D0FB6D4
:10118000F894DEBF0FBECDBFED0108950E94CD08DB
:101190006894B1110C94890808950E946E0888F033
:1011A0009F5798F0B92F9927B751B0F0E1F0660F2B
:1011B000771F881F991F1AF0BA95C9F714C0B1306C
:1011C00091F00E948808B1E008950C948808672F78
:1011D000782F8827B85F39F0B93FCCF3869577959B
:1011E0006795B395D9F73EF4909580957095619584
:1011F0007F4F8F4F9F4F0895A1E21A2EAA1BBB1B52
:10120000FD010DC0AA1FBB1FEE1FFF1FA217B307D2
:10121000E407F50720F0A21BB30BE40BF50B661FE8
:10122000771F881F991F1A9469F7609570958095AC
:1012300090959B01AC01BD01CF010895EE0FFF1FFA
:101240000590F491E02D09940F931F93CF93DF93B2
:101250008230910510F482E090E0E091B602F091C6
:10126000B70230E020E0B0E0A0E0309799F421151B
:10127000310509F44AC0281B390B24303105D8F553
:101280008A819B816115710589F1FB0193838283BA
:10129000FE0111C040815181028113814817590715
:1012A000E0F04817590799F4109761F012960C93E3
:1012B000129713961C933296CF01DF91CF911F9115
:1012C0000F9108950093B6021093B702F4CF211541
:1012D000310551F04217530738F0A901DB019A019B
:1012E000BD01DF01F801C1CFEF01F9CF9093B70243
:1012F0008093B602CDCFFE01E20FF31F819391934D
:101300002250310939832883D7CF2091B4023091FC
:10131000B502232B41F42091020130910301309357
:10132000B5022093B40220910001309101012115F2
:10133000310541F42DB73EB74091040150910501AC
:10134000241B350BE091B402F091B502E217F307CC
:10135000A0F42E1B3F0B2817390778F0AC014E5F25
:101360005F4F2417350748F04E0F5F1F5093B502AB
:101370004093B402819391939FCFF0E0E0E09CCF43
:10138000CF93DF930097E9F0FC013297138212822A
:10139000A091B602B091B702ED0130E020E01097C5
:1013A000A1F420813181820F931F2091B4023091EA
:1013B000B5022817390709F061C0F093B502E09330
:1013C000B402DF91CF910895EA01CE17DF07E8F567
:1013D0004A815B819E0141155105B1F7E901FB830B
:1013E000EA8349915991C40FD51FEC17FD0761F4A9
:1013F000808191810296840F951FE90199838883EA
:10140000828193819B838A83F0E0E0E012968D9144
:101410009C9113970097B9F52D913C911197CD01AF
:101420000296820F931F2091B4023091B5022817C3
:10143000390739F6309751F51092B7021092B6027B
:10144000B093B502A093B402BCCFD383C2834081D2
:101450005181840F951FC817D90761F44E5F5F4F04
:1014600088819981480F591F518340838A819B81CC
:10147000938382832115310509F0B0CFF093B70231
:10148000E093B6029ECFFD01DC01C0CF1382128231
:10149000D7CFB0E0A0E0EFE4FAE00C9491088C0123
:1014A000009751F4CB010E9424098C01C801CDB7EB
:1014B000DEB7E0E10C94AD08FC01E60FF71F9C01DC
:1014C00022503109E217F30708F49DC0D901CD91EC
:1014D000DC911197C617D70798F0C530D10530F3C6
:1014E000CE0104978617970708F3C61BD70B2297E0
:1014F000C193D1936D937C93CF010E94C009D6CF45
:101500005B01AC1ABD0A4C018C0E9D1EA091B60267
:10151000B091B702512C412CF12CE12C109731F5F0
:101520008091B4029091B5028815990509F05CC0CC
:101530004616570608F058C08091000190910101AD
:10154000009741F48DB79EB7409104015091050179
:10155000841B950BE817F90708F055C0F093B50206
:10156000E093B402F90171836083A0CF8D919C91C7
:10157000119712966C90129713967C901397A8155A
:10158000B90559F56C0142E0C40ED11CCA14DB0444
:1015900020F1AC014A195B09DA011296159780F027
:1015A0006282738251834083D9016D937C93E114ED
:1015B000F10471F0D7011396FC93EE93129776CF56
:1015C00022968C0F9D1FF90191838083F301EFCF49
:1015D000F093B702E093B60269CF4816590608F4B3
:1015E0002C017D01D3019ACFCB010E9424097C01FB
:1015F000009749F0AE01B8010E94060BC8010E9495
:10160000C009870153CF10E000E050CFFB01DC019F
:1016100002C001900D9241505040D8F70895FB014F
:10162000DC0101900D920020E1F7089510E0C2E680
:10163000D0E004C0FE010E941E092196C336D107E6
:06164000C9F7F894FFCF8A
:101646000000B802800000000000B601D6000301C9
:1016560003027401120166010D0A000A50726573D5
:1016660073207220746F20636865636B20646973EE
:1016760074616E6365005072657373206920746FC0
:1016860020636865636B2064697374616E636520AB
:10169600636F6E74696E6F75736C7920666F7220F6
:1016A6003130207365630050726573732074206156
:1016B6006E64206D656E74696F6E2074696D652049
:1016C600746F20636865636B2064697374616E630D
:1016D6006520636F6E74696E6F75736C7920666FC3
:1016E600722073706563696669632074696D65202D
:1016F6006475726174696F6E20696E20736563002C
:1017060056656869636C65205061726B696E672007
:10171600417373697374616E740056656869636CAE
:1017260065204761702044697374616E6365206942
:10173600733A200020636D00496E76616C696420FF
:06174600496E707574008D
:00000001FF
